{
  "_format": "hh-sol-artifact-1",
  "contractName": "NFTCollection",
  "sourceName": "contracts/NFTCollection.sol",
  "abi": [
    {
      "inputs": [
        {
          "internalType": "address",
          "name": "marketplaceAddress",
          "type": "address"
        }
      ],
      "stateMutability": "nonpayable",
      "type": "constructor"
    },
    {
      "inputs": [
        {
          "internalType": "address",
          "name": "sender",
          "type": "address"
        },
        {
          "internalType": "uint256",
          "name": "tokenId",
          "type": "uint256"
        },
        {
          "internalType": "address",
          "name": "owner",
          "type": "address"
        }
      ],
      "name": "ERC721IncorrectOwner",
      "type": "error"
    },
    {
      "inputs": [
        {
          "internalType": "address",
          "name": "operator",
          "type": "address"
        },
        {
          "internalType": "uint256",
          "name": "tokenId",
          "type": "uint256"
        }
      ],
      "name": "ERC721InsufficientApproval",
      "type": "error"
    },
    {
      "inputs": [
        {
          "internalType": "address",
          "name": "approver",
          "type": "address"
        }
      ],
      "name": "ERC721InvalidApprover",
      "type": "error"
    },
    {
      "inputs": [
        {
          "internalType": "address",
          "name": "operator",
          "type": "address"
        }
      ],
      "name": "ERC721InvalidOperator",
      "type": "error"
    },
    {
      "inputs": [
        {
          "internalType": "address",
          "name": "owner",
          "type": "address"
        }
      ],
      "name": "ERC721InvalidOwner",
      "type": "error"
    },
    {
      "inputs": [
        {
          "internalType": "address",
          "name": "receiver",
          "type": "address"
        }
      ],
      "name": "ERC721InvalidReceiver",
      "type": "error"
    },
    {
      "inputs": [
        {
          "internalType": "address",
          "name": "sender",
          "type": "address"
        }
      ],
      "name": "ERC721InvalidSender",
      "type": "error"
    },
    {
      "inputs": [
        {
          "internalType": "uint256",
          "name": "tokenId",
          "type": "uint256"
        }
      ],
      "name": "ERC721NonexistentToken",
      "type": "error"
    },
    {
      "anonymous": false,
      "inputs": [
        {
          "indexed": true,
          "internalType": "address",
          "name": "owner",
          "type": "address"
        },
        {
          "indexed": true,
          "internalType": "address",
          "name": "approved",
          "type": "address"
        },
        {
          "indexed": true,
          "internalType": "uint256",
          "name": "tokenId",
          "type": "uint256"
        }
      ],
      "name": "Approval",
      "type": "event"
    },
    {
      "anonymous": false,
      "inputs": [
        {
          "indexed": true,
          "internalType": "address",
          "name": "owner",
          "type": "address"
        },
        {
          "indexed": true,
          "internalType": "address",
          "name": "operator",
          "type": "address"
        },
        {
          "indexed": false,
          "internalType": "bool",
          "name": "approved",
          "type": "bool"
        }
      ],
      "name": "ApprovalForAll",
      "type": "event"
    },
    {
      "anonymous": false,
      "inputs": [
        {
          "indexed": false,
          "internalType": "uint256",
          "name": "_fromTokenId",
          "type": "uint256"
        },
        {
          "indexed": false,
          "internalType": "uint256",
          "name": "_toTokenId",
          "type": "uint256"
        }
      ],
      "name": "BatchMetadataUpdate",
      "type": "event"
    },
    {
      "anonymous": false,
      "inputs": [
        {
          "indexed": false,
          "internalType": "uint256",
          "name": "_tokenId",
          "type": "uint256"
        }
      ],
      "name": "MetadataUpdate",
      "type": "event"
    },
    {
      "anonymous": false,
      "inputs": [
        {
          "indexed": true,
          "internalType": "address",
          "name": "from",
          "type": "address"
        },
        {
          "indexed": true,
          "internalType": "address",
          "name": "to",
          "type": "address"
        },
        {
          "indexed": true,
          "internalType": "uint256",
          "name": "tokenId",
          "type": "uint256"
        }
      ],
      "name": "Transfer",
      "type": "event"
    },
    {
      "inputs": [
        {
          "internalType": "address",
          "name": "to",
          "type": "address"
        },
        {
          "internalType": "uint256",
          "name": "tokenId",
          "type": "uint256"
        }
      ],
      "name": "approve",
      "outputs": [],
      "stateMutability": "nonpayable",
      "type": "function"
    },
    {
      "inputs": [
        {
          "internalType": "address",
          "name": "owner",
          "type": "address"
        }
      ],
      "name": "balanceOf",
      "outputs": [
        {
          "internalType": "uint256",
          "name": "",
          "type": "uint256"
        }
      ],
      "stateMutability": "view",
      "type": "function"
    },
    {
      "inputs": [
        {
          "internalType": "uint256",
          "name": "tokenId",
          "type": "uint256"
        }
      ],
      "name": "getApproved",
      "outputs": [
        {
          "internalType": "address",
          "name": "",
          "type": "address"
        }
      ],
      "stateMutability": "view",
      "type": "function"
    },
    {
      "inputs": [
        {
          "internalType": "address",
          "name": "owner",
          "type": "address"
        },
        {
          "internalType": "address",
          "name": "operator",
          "type": "address"
        }
      ],
      "name": "isApprovedForAll",
      "outputs": [
        {
          "internalType": "bool",
          "name": "",
          "type": "bool"
        }
      ],
      "stateMutability": "view",
      "type": "function"
    },
    {
      "inputs": [
        {
          "internalType": "string",
          "name": "uri",
          "type": "string"
        }
      ],
      "name": "mint",
      "outputs": [
        {
          "internalType": "uint256",
          "name": "",
          "type": "uint256"
        }
      ],
      "stateMutability": "nonpayable",
      "type": "function"
    },
    {
      "inputs": [],
      "name": "name",
      "outputs": [
        {
          "internalType": "string",
          "name": "",
          "type": "string"
        }
      ],
      "stateMutability": "view",
      "type": "function"
    },
    {
      "inputs": [
        {
          "internalType": "uint256",
          "name": "tokenId",
          "type": "uint256"
        }
      ],
      "name": "ownerOf",
      "outputs": [
        {
          "internalType": "address",
          "name": "",
          "type": "address"
        }
      ],
      "stateMutability": "view",
      "type": "function"
    },
    {
      "inputs": [
        {
          "internalType": "address",
          "name": "from",
          "type": "address"
        },
        {
          "internalType": "address",
          "name": "to",
          "type": "address"
        },
        {
          "internalType": "uint256",
          "name": "tokenId",
          "type": "uint256"
        }
      ],
      "name": "safeTransferFrom",
      "outputs": [],
      "stateMutability": "nonpayable",
      "type": "function"
    },
    {
      "inputs": [
        {
          "internalType": "address",
          "name": "from",
          "type": "address"
        },
        {
          "internalType": "address",
          "name": "to",
          "type": "address"
        },
        {
          "internalType": "uint256",
          "name": "tokenId",
          "type": "uint256"
        },
        {
          "internalType": "bytes",
          "name": "data",
          "type": "bytes"
        }
      ],
      "name": "safeTransferFrom",
      "outputs": [],
      "stateMutability": "nonpayable",
      "type": "function"
    },
    {
      "inputs": [
        {
          "internalType": "address",
          "name": "operator",
          "type": "address"
        },
        {
          "internalType": "bool",
          "name": "approved",
          "type": "bool"
        }
      ],
      "name": "setApprovalForAll",
      "outputs": [],
      "stateMutability": "nonpayable",
      "type": "function"
    },
    {
      "inputs": [
        {
          "internalType": "bytes4",
          "name": "interfaceId",
          "type": "bytes4"
        }
      ],
      "name": "supportsInterface",
      "outputs": [
        {
          "internalType": "bool",
          "name": "",
          "type": "bool"
        }
      ],
      "stateMutability": "view",
      "type": "function"
    },
    {
      "inputs": [],
      "name": "symbol",
      "outputs": [
        {
          "internalType": "string",
          "name": "",
          "type": "string"
        }
      ],
      "stateMutability": "view",
      "type": "function"
    },
    {
      "inputs": [
        {
          "internalType": "uint256",
          "name": "tokenId",
          "type": "uint256"
        }
      ],
      "name": "tokenURI",
      "outputs": [
        {
          "internalType": "string",
          "name": "",
          "type": "string"
        }
      ],
      "stateMutability": "view",
      "type": "function"
    },
    {
      "inputs": [
        {
          "internalType": "address",
          "name": "from",
          "type": "address"
        },
        {
          "internalType": "address",
          "name": "to",
          "type": "address"
        },
        {
          "internalType": "uint256",
          "name": "tokenId",
          "type": "uint256"
        }
      ],
      "name": "transferFrom",
      "outputs": [],
      "stateMutability": "nonpayable",
      "type": "function"
    }
  ],
  "bytecode": "0x60806040523480156200001157600080fd5b5060405162002ac338038062002ac38339818101604052810190620000379190620001bc565b6040518060400160405280600c81526020017f50726f746f4f70656e53656100000000000000000000000000000000000000008152506040518060400160405280600381526020017f504f5300000000000000000000000000000000000000000000000000000000008152508160009081620000b4919062000468565b508060019081620000c6919062000468565b50505080600860006101000a81548173ffffffffffffffffffffffffffffffffffffffff021916908373ffffffffffffffffffffffffffffffffffffffff16021790555033600960006101000a81548173ffffffffffffffffffffffffffffffffffffffff021916908373ffffffffffffffffffffffffffffffffffffffff160217905550506200054f565b600080fd5b600073ffffffffffffffffffffffffffffffffffffffff82169050919050565b6000620001848262000157565b9050919050565b620001968162000177565b8114620001a257600080fd5b50565b600081519050620001b6816200018b565b92915050565b600060208284031215620001d557620001d462000152565b5b6000620001e584828501620001a5565b91505092915050565b600081519050919050565b7f4e487b7100000000000000000000000000000000000000000000000000000000600052604160045260246000fd5b7f4e487b7100000000000000000000000000000000000000000000000000000000600052602260045260246000fd5b600060028204905060018216806200027057607f821691505b60208210810362000286576200028562000228565b5b50919050565b60008190508160005260206000209050919050565b60006020601f8301049050919050565b600082821b905092915050565b600060088302620002f07fffffffffffffffffffffffffffffffffffffffffffffffffffffffffffffffff82620002b1565b620002fc8683620002b1565b95508019841693508086168417925050509392505050565b6000819050919050565b6000819050919050565b600062000349620003436200033d8462000314565b6200031e565b62000314565b9050919050565b6000819050919050565b620003658362000328565b6200037d620003748262000350565b848454620002be565b825550505050565b600090565b6200039462000385565b620003a18184846200035a565b505050565b5b81811015620003c957620003bd6000826200038a565b600181019050620003a7565b5050565b601f8211156200041857620003e2816200028c565b620003ed84620002a1565b81016020851015620003fd578190505b620004156200040c85620002a1565b830182620003a6565b50505b505050565b600082821c905092915050565b60006200043d600019846008026200041d565b1980831691505092915050565b60006200045883836200042a565b9150826002028217905092915050565b6200047382620001ee565b67ffffffffffffffff8111156200048f576200048e620001f9565b5b6200049b825462000257565b620004a8828285620003cd565b600060209050601f831160018114620004e05760008415620004cb578287015190505b620004d785826200044a565b86555062000547565b601f198416620004f0866200028c565b60005b828110156200051a57848901518255600182019150602085019450602081019050620004f3565b868310156200053a578489015162000536601f8916826200042a565b8355505b6001600288020188555050505b505050505050565b612564806200055f6000396000f3fe608060405234801561001057600080fd5b50600436106100ea5760003560e01c806370a082311161008c578063b88d4fde11610066578063b88d4fde1461025b578063c87b56dd14610277578063d85d3d27146102a7578063e985e9c5146102d7576100ea565b806370a08231146101f157806395d89b4114610221578063a22cb4651461023f576100ea565b8063095ea7b3116100c8578063095ea7b31461016d57806323b872dd1461018957806342842e0e146101a55780636352211e146101c1576100ea565b806301ffc9a7146100ef57806306fdde031461011f578063081812fc1461013d575b600080fd5b6101096004803603810190610104919061193d565b610307565b6040516101169190611985565b60405180910390f35b610127610368565b6040516101349190611a30565b60405180910390f35b61015760048036038101906101529190611a88565b6103fa565b6040516101649190611af6565b60405180910390f35b61018760048036038101906101829190611b3d565b610416565b005b6101a3600480360381019061019e9190611b7d565b61042c565b005b6101bf60048036038101906101ba9190611b7d565b61052e565b005b6101db60048036038101906101d69190611a88565b61054e565b6040516101e89190611af6565b60405180910390f35b61020b60048036038101906102069190611bd0565b610560565b6040516102189190611c0c565b60405180910390f35b61022961061a565b6040516102369190611a30565b60405180910390f35b61025960048036038101906102549190611c53565b6106ac565b005b61027560048036038101906102709190611dc8565b6107ba565b005b610291600480360381019061028c9190611a88565b6107d7565b60405161029e9190611a30565b60405180910390f35b6102c160048036038101906102bc9190611eec565b6108ea565b6040516102ce9190611c0c565b60405180910390f35b6102f160048036038101906102ec9190611f35565b610955565b6040516102fe9190611985565b60405180910390f35b6000634906490660e01b7bffffffffffffffffffffffffffffffffffffffffffffffffffffffff1916827bffffffffffffffffffffffffffffffffffffffffffffffffffffffff191614806103615750610360826109e9565b5b9050919050565b60606000805461037790611fa4565b80601f01602080910402602001604051908101604052809291908181526020018280546103a390611fa4565b80156103f05780601f106103c5576101008083540402835291602001916103f0565b820191906000526020600020905b8154815290600101906020018083116103d357829003601f168201915b5050505050905090565b600061040582610acb565b5061040f82610b53565b9050919050565b6104288282610423610b90565b610b98565b5050565b600073ffffffffffffffffffffffffffffffffffffffff168273ffffffffffffffffffffffffffffffffffffffff160361049e5760006040517f64a0ae920000000000000000000000000000000000000000000000000000000081526004016104959190611af6565b60405180910390fd5b60006104b283836104ad610b90565b610baa565b90508373ffffffffffffffffffffffffffffffffffffffff168173ffffffffffffffffffffffffffffffffffffffff1614610528578382826040517f64283d7b00000000000000000000000000000000000000000000000000000000815260040161051f93929190611fd5565b60405180910390fd5b50505050565b610549838383604051806020016040528060008152506107ba565b505050565b600061055982610acb565b9050919050565b60008073ffffffffffffffffffffffffffffffffffffffff168273ffffffffffffffffffffffffffffffffffffffff16036105d35760006040517f89c62b640000000000000000000000000000000000000000000000000000000081526004016105ca9190611af6565b60405180910390fd5b600360008373ffffffffffffffffffffffffffffffffffffffff1673ffffffffffffffffffffffffffffffffffffffff168152602001908152602001600020549050919050565b60606001805461062990611fa4565b80601f016020809104026020016040519081016040528092919081815260200182805461065590611fa4565b80156106a25780601f10610677576101008083540402835291602001916106a2565b820191906000526020600020905b81548152906001019060200180831161068557829003601f168201915b5050505050905090565b600960009054906101000a900473ffffffffffffffffffffffffffffffffffffffff1673ffffffffffffffffffffffffffffffffffffffff166106ed610b90565b73ffffffffffffffffffffffffffffffffffffffff16148061075d5750600860009054906101000a900473ffffffffffffffffffffffffffffffffffffffff1673ffffffffffffffffffffffffffffffffffffffff168273ffffffffffffffffffffffffffffffffffffffff1614155b806107655750805b6107a4576040517f08c379a000000000000000000000000000000000000000000000000000000000815260040161079b9061207e565b60405180910390fd5b6107b66107af610b90565b8383610dc4565b5050565b6107c584848461042c565b6107d184848484610f33565b50505050565b60606107e282610acb565b50600060066000848152602001908152602001600020805461080390611fa4565b80601f016020809104026020016040519081016040528092919081815260200182805461082f90611fa4565b801561087c5780601f106108515761010080835404028352916020019161087c565b820191906000526020600020905b81548152906001019060200180831161085f57829003601f168201915b50505050509050600061088d6110ea565b905060008151036108a25781925050506108e5565b6000825111156108d75780826040516020016108bf9291906120da565b604051602081830303815290604052925050506108e5565b6108e084611101565b925050505b919050565b6000600760008154809291906108ff9061212d565b919050555060006007549050610915338261116a565b61091f8184611263565b61094c600860009054906101000a900473ffffffffffffffffffffffffffffffffffffffff1660016106ac565b80915050919050565b6000600560008473ffffffffffffffffffffffffffffffffffffffff1673ffffffffffffffffffffffffffffffffffffffff16815260200190815260200160002060008373ffffffffffffffffffffffffffffffffffffffff1673ffffffffffffffffffffffffffffffffffffffff16815260200190815260200160002060009054906101000a900460ff16905092915050565b60007f80ac58cd000000000000000000000000000000000000000000000000000000007bffffffffffffffffffffffffffffffffffffffffffffffffffffffff1916827bffffffffffffffffffffffffffffffffffffffffffffffffffffffff19161480610ab457507f5b5e139f000000000000000000000000000000000000000000000000000000007bffffffffffffffffffffffffffffffffffffffffffffffffffffffff1916827bffffffffffffffffffffffffffffffffffffffffffffffffffffffff1916145b80610ac45750610ac3826112bf565b5b9050919050565b600080610ad783611329565b9050600073ffffffffffffffffffffffffffffffffffffffff168173ffffffffffffffffffffffffffffffffffffffff1603610b4a57826040517f7e273289000000000000000000000000000000000000000000000000000000008152600401610b419190611c0c565b60405180910390fd5b80915050919050565b60006004600083815260200190815260200160002060009054906101000a900473ffffffffffffffffffffffffffffffffffffffff169050919050565b600033905090565b610ba58383836001611366565b505050565b600080610bb684611329565b9050600073ffffffffffffffffffffffffffffffffffffffff168373ffffffffffffffffffffffffffffffffffffffff1614610bf857610bf781848661152b565b5b600073ffffffffffffffffffffffffffffffffffffffff168173ffffffffffffffffffffffffffffffffffffffff1614610c8957610c3a600085600080611366565b6001600360008373ffffffffffffffffffffffffffffffffffffffff1673ffffffffffffffffffffffffffffffffffffffff168152602001908152602001600020600082825403925050819055505b600073ffffffffffffffffffffffffffffffffffffffff168573ffffffffffffffffffffffffffffffffffffffff1614610d0c576001600360008773ffffffffffffffffffffffffffffffffffffffff1673ffffffffffffffffffffffffffffffffffffffff168152602001908152602001600020600082825401925050819055505b846002600086815260200190815260200160002060006101000a81548173ffffffffffffffffffffffffffffffffffffffff021916908373ffffffffffffffffffffffffffffffffffffffff160217905550838573ffffffffffffffffffffffffffffffffffffffff168273ffffffffffffffffffffffffffffffffffffffff167fddf252ad1be2c89b69c2b068fc378daa952ba7f163c4a11628f55a4df523b3ef60405160405180910390a4809150509392505050565b600073ffffffffffffffffffffffffffffffffffffffff168273ffffffffffffffffffffffffffffffffffffffff1603610e3557816040517f5b08ba18000000000000000000000000000000000000000000000000000000008152600401610e2c9190611af6565b60405180910390fd5b80600560008573ffffffffffffffffffffffffffffffffffffffff1673ffffffffffffffffffffffffffffffffffffffff16815260200190815260200160002060008473ffffffffffffffffffffffffffffffffffffffff1673ffffffffffffffffffffffffffffffffffffffff16815260200190815260200160002060006101000a81548160ff0219169083151502179055508173ffffffffffffffffffffffffffffffffffffffff168373ffffffffffffffffffffffffffffffffffffffff167f17307eab39ab6107e8899845ad3d59bd9653f200f220920489ca2b5937696c3183604051610f269190611985565b60405180910390a3505050565b60008373ffffffffffffffffffffffffffffffffffffffff163b11156110e4578273ffffffffffffffffffffffffffffffffffffffff1663150b7a02610f77610b90565b8685856040518563ffffffff1660e01b8152600401610f9994939291906121ca565b6020604051808303816000875af1925050508015610fd557506040513d601f19601f82011682018060405250810190610fd2919061222b565b60015b611059573d8060008114611005576040519150601f19603f3d011682016040523d82523d6000602084013e61100a565b606091505b50600081510361105157836040517f64a0ae920000000000000000000000000000000000000000000000000000000081526004016110489190611af6565b60405180910390fd5b805181602001fd5b63150b7a0260e01b7bffffffffffffffffffffffffffffffffffffffffffffffffffffffff1916817bffffffffffffffffffffffffffffffffffffffffffffffffffffffff1916146110e257836040517f64a0ae920000000000000000000000000000000000000000000000000000000081526004016110d99190611af6565b60405180910390fd5b505b50505050565b606060405180602001604052806000815250905090565b606061110c82610acb565b5060006111176110ea565b905060008151116111375760405180602001604052806000815250611162565b80611141846115ef565b6040516020016111529291906120da565b6040516020818303038152906040525b915050919050565b600073ffffffffffffffffffffffffffffffffffffffff168273ffffffffffffffffffffffffffffffffffffffff16036111dc5760006040517f64a0ae920000000000000000000000000000000000000000000000000000000081526004016111d39190611af6565b60405180910390fd5b60006111ea83836000610baa565b9050600073ffffffffffffffffffffffffffffffffffffffff168173ffffffffffffffffffffffffffffffffffffffff161461125e5760006040517f73c6ac6e0000000000000000000000000000000000000000000000000000000081526004016112559190611af6565b60405180910390fd5b505050565b806006600084815260200190815260200160002090816112839190612404565b507ff8e1a15aba9398e019f0b49df1a4fde98ee17ae345cb5f6b5e2c27f5033e8ce7826040516112b39190611c0c565b60405180910390a15050565b60007f01ffc9a7000000000000000000000000000000000000000000000000000000007bffffffffffffffffffffffffffffffffffffffffffffffffffffffff1916827bffffffffffffffffffffffffffffffffffffffffffffffffffffffff1916149050919050565b60006002600083815260200190815260200160002060009054906101000a900473ffffffffffffffffffffffffffffffffffffffff169050919050565b808061139f5750600073ffffffffffffffffffffffffffffffffffffffff168273ffffffffffffffffffffffffffffffffffffffff1614155b156114d35760006113af84610acb565b9050600073ffffffffffffffffffffffffffffffffffffffff168373ffffffffffffffffffffffffffffffffffffffff161415801561141a57508273ffffffffffffffffffffffffffffffffffffffff168173ffffffffffffffffffffffffffffffffffffffff1614155b801561142d575061142b8184610955565b155b1561146f57826040517fa9fbf51f0000000000000000000000000000000000000000000000000000000081526004016114669190611af6565b60405180910390fd5b81156114d157838573ffffffffffffffffffffffffffffffffffffffff168273ffffffffffffffffffffffffffffffffffffffff167f8c5be1e5ebec7d5bd14f71427d1e84f3dd0314c0f7b2291e5b200ac8c7c3b92560405160405180910390a45b505b836004600085815260200190815260200160002060006101000a81548173ffffffffffffffffffffffffffffffffffffffff021916908373ffffffffffffffffffffffffffffffffffffffff16021790555050505050565b6115368383836116bd565b6115ea57600073ffffffffffffffffffffffffffffffffffffffff168373ffffffffffffffffffffffffffffffffffffffff16036115ab57806040517f7e2732890000000000000000000000000000000000000000000000000000000081526004016115a29190611c0c565b60405180910390fd5b81816040517f177e802f0000000000000000000000000000000000000000000000000000000081526004016115e19291906124d6565b60405180910390fd5b505050565b6060600060016115fe8461177e565b01905060008167ffffffffffffffff81111561161d5761161c611c9d565b5b6040519080825280601f01601f19166020018201604052801561164f5781602001600182028036833780820191505090505b509050600082602001820190505b6001156116b2578080600190039150507f3031323334353637383961626364656600000000000000000000000000000000600a86061a8153600a85816116a6576116a56124ff565b5b0494506000850361165d575b819350505050919050565b60008073ffffffffffffffffffffffffffffffffffffffff168373ffffffffffffffffffffffffffffffffffffffff161415801561177557508273ffffffffffffffffffffffffffffffffffffffff168473ffffffffffffffffffffffffffffffffffffffff16148061173657506117358484610955565b5b8061177457508273ffffffffffffffffffffffffffffffffffffffff1661175c83610b53565b73ffffffffffffffffffffffffffffffffffffffff16145b5b90509392505050565b600080600090507a184f03e93ff9f4daa797ed6e38ed64bf6a1f01000000000000000083106117dc577a184f03e93ff9f4daa797ed6e38ed64bf6a1f01000000000000000083816117d2576117d16124ff565b5b0492506040810190505b6d04ee2d6d415b85acef81000000008310611819576d04ee2d6d415b85acef8100000000838161180f5761180e6124ff565b5b0492506020810190505b662386f26fc10000831061184857662386f26fc10000838161183e5761183d6124ff565b5b0492506010810190505b6305f5e1008310611871576305f5e1008381611867576118666124ff565b5b0492506008810190505b612710831061189657612710838161188c5761188b6124ff565b5b0492506004810190505b606483106118b957606483816118af576118ae6124ff565b5b0492506002810190505b600a83106118c8576001810190505b80915050919050565b6000604051905090565b600080fd5b600080fd5b60007fffffffff0000000000000000000000000000000000000000000000000000000082169050919050565b61191a816118e5565b811461192557600080fd5b50565b60008135905061193781611911565b92915050565b600060208284031215611953576119526118db565b5b600061196184828501611928565b91505092915050565b60008115159050919050565b61197f8161196a565b82525050565b600060208201905061199a6000830184611976565b92915050565b600081519050919050565b600082825260208201905092915050565b60005b838110156119da5780820151818401526020810190506119bf565b60008484015250505050565b6000601f19601f8301169050919050565b6000611a02826119a0565b611a0c81856119ab565b9350611a1c8185602086016119bc565b611a25816119e6565b840191505092915050565b60006020820190508181036000830152611a4a81846119f7565b905092915050565b6000819050919050565b611a6581611a52565b8114611a7057600080fd5b50565b600081359050611a8281611a5c565b92915050565b600060208284031215611a9e57611a9d6118db565b5b6000611aac84828501611a73565b91505092915050565b600073ffffffffffffffffffffffffffffffffffffffff82169050919050565b6000611ae082611ab5565b9050919050565b611af081611ad5565b82525050565b6000602082019050611b0b6000830184611ae7565b92915050565b611b1a81611ad5565b8114611b2557600080fd5b50565b600081359050611b3781611b11565b92915050565b60008060408385031215611b5457611b536118db565b5b6000611b6285828601611b28565b9250506020611b7385828601611a73565b9150509250929050565b600080600060608486031215611b9657611b956118db565b5b6000611ba486828701611b28565b9350506020611bb586828701611b28565b9250506040611bc686828701611a73565b9150509250925092565b600060208284031215611be657611be56118db565b5b6000611bf484828501611b28565b91505092915050565b611c0681611a52565b82525050565b6000602082019050611c216000830184611bfd565b92915050565b611c308161196a565b8114611c3b57600080fd5b50565b600081359050611c4d81611c27565b92915050565b60008060408385031215611c6a57611c696118db565b5b6000611c7885828601611b28565b9250506020611c8985828601611c3e565b9150509250929050565b600080fd5b600080fd5b7f4e487b7100000000000000000000000000000000000000000000000000000000600052604160045260246000fd5b611cd5826119e6565b810181811067ffffffffffffffff82111715611cf457611cf3611c9d565b5b80604052505050565b6000611d076118d1565b9050611d138282611ccc565b919050565b600067ffffffffffffffff821115611d3357611d32611c9d565b5b611d3c826119e6565b9050602081019050919050565b82818337600083830152505050565b6000611d6b611d6684611d18565b611cfd565b905082815260208101848484011115611d8757611d86611c98565b5b611d92848285611d49565b509392505050565b600082601f830112611daf57611dae611c93565b5b8135611dbf848260208601611d58565b91505092915050565b60008060008060808587031215611de257611de16118db565b5b6000611df087828801611b28565b9450506020611e0187828801611b28565b9350506040611e1287828801611a73565b925050606085013567ffffffffffffffff811115611e3357611e326118e0565b5b611e3f87828801611d9a565b91505092959194509250565b600067ffffffffffffffff821115611e6657611e65611c9d565b5b611e6f826119e6565b9050602081019050919050565b6000611e8f611e8a84611e4b565b611cfd565b905082815260208101848484011115611eab57611eaa611c98565b5b611eb6848285611d49565b509392505050565b600082601f830112611ed357611ed2611c93565b5b8135611ee3848260208601611e7c565b91505092915050565b600060208284031215611f0257611f016118db565b5b600082013567ffffffffffffffff811115611f2057611f1f6118e0565b5b611f2c84828501611ebe565b91505092915050565b60008060408385031215611f4c57611f4b6118db565b5b6000611f5a85828601611b28565b9250506020611f6b85828601611b28565b9150509250929050565b7f4e487b7100000000000000000000000000000000000000000000000000000000600052602260045260246000fd5b60006002820490506001821680611fbc57607f821691505b602082108103611fcf57611fce611f75565b5b50919050565b6000606082019050611fea6000830186611ae7565b611ff76020830185611bfd565b6120046040830184611ae7565b949350505050565b7f43616e6e6f742072656d6f7665206d61726b6574706c61636520617070726f7660008201527f616c000000000000000000000000000000000000000000000000000000000000602082015250565b60006120686022836119ab565b91506120738261200c565b604082019050919050565b600060208201905081810360008301526120978161205b565b9050919050565b600081905092915050565b60006120b4826119a0565b6120be818561209e565b93506120ce8185602086016119bc565b80840191505092915050565b60006120e682856120a9565b91506120f282846120a9565b91508190509392505050565b7f4e487b7100000000000000000000000000000000000000000000000000000000600052601160045260246000fd5b600061213882611a52565b91507fffffffffffffffffffffffffffffffffffffffffffffffffffffffffffffffff820361216a576121696120fe565b5b600182019050919050565b600081519050919050565b600082825260208201905092915050565b600061219c82612175565b6121a68185612180565b93506121b68185602086016119bc565b6121bf816119e6565b840191505092915050565b60006080820190506121df6000830187611ae7565b6121ec6020830186611ae7565b6121f96040830185611bfd565b818103606083015261220b8184612191565b905095945050505050565b60008151905061222581611911565b92915050565b600060208284031215612241576122406118db565b5b600061224f84828501612216565b91505092915050565b60008190508160005260206000209050919050565b60006020601f8301049050919050565b600082821b905092915050565b6000600883026122ba7fffffffffffffffffffffffffffffffffffffffffffffffffffffffffffffffff8261227d565b6122c4868361227d565b95508019841693508086168417925050509392505050565b6000819050919050565b60006123016122fc6122f784611a52565b6122dc565b611a52565b9050919050565b6000819050919050565b61231b836122e6565b61232f61232782612308565b84845461228a565b825550505050565b600090565b612344612337565b61234f818484612312565b505050565b5b818110156123735761236860008261233c565b600181019050612355565b5050565b601f8211156123b85761238981612258565b6123928461226d565b810160208510156123a1578190505b6123b56123ad8561226d565b830182612354565b50505b505050565b600082821c905092915050565b60006123db600019846008026123bd565b1980831691505092915050565b60006123f483836123ca565b9150826002028217905092915050565b61240d826119a0565b67ffffffffffffffff81111561242657612425611c9d565b5b6124308254611fa4565b61243b828285612377565b600060209050601f83116001811461246e576000841561245c578287015190505b61246685826123e8565b8655506124ce565b601f19841661247c86612258565b60005b828110156124a45784890151825560018201915060208501945060208101905061247f565b868310156124c157848901516124bd601f8916826123ca565b8355505b6001600288020188555050505b505050505050565b60006040820190506124eb6000830185611ae7565b6124f86020830184611bfd565b9392505050565b7f4e487b7100000000000000000000000000000000000000000000000000000000600052601260045260246000fdfea2646970667358221220f635cd587594f4b89f7f89b11981aa8523c3ee7a1e6acecfc91a63f9850ec81a64736f6c63430008180033",
  "linkReferences": {},
  "deployedLinkReferences": {}
}