{
  "_format": "hh-sol-artifact-1",
  "contractName": "NFTMarket",
  "sourceName": "contracts/NFTMarket.sol",
  "abi": [
    {
      "inputs": [],
      "stateMutability": "nonpayable",
      "type": "constructor"
    },
    {
      "inputs": [],
      "name": "ReentrancyGuardReentrantCall",
      "type": "error"
    },
    {
      "anonymous": false,
      "inputs": [
        {
          "indexed": true,
          "internalType": "uint256",
          "name": "itemId",
          "type": "uint256"
        },
        {
          "indexed": true,
          "internalType": "address",
          "name": "nftContract",
          "type": "address"
        },
        {
          "indexed": true,
          "internalType": "uint256",
          "name": "tokenId",
          "type": "uint256"
        },
        {
          "indexed": false,
          "internalType": "address",
          "name": "seller",
          "type": "address"
        },
        {
          "indexed": false,
          "internalType": "uint256",
          "name": "price",
          "type": "uint256"
        }
      ],
      "name": "MarketItemCreated",
      "type": "event"
    },
    {
      "inputs": [
        {
          "internalType": "address",
          "name": "nftContract",
          "type": "address"
        },
        {
          "internalType": "uint256",
          "name": "tokenId",
          "type": "uint256"
        },
        {
          "internalType": "uint256",
          "name": "price",
          "type": "uint256"
        }
      ],
      "name": "createMarketItem",
      "outputs": [],
      "stateMutability": "payable",
      "type": "function"
    },
    {
      "inputs": [
        {
          "internalType": "address",
          "name": "nftContract",
          "type": "address"
        },
        {
          "internalType": "uint256",
          "name": "itemId",
          "type": "uint256"
        }
      ],
      "name": "createMarketSale",
      "outputs": [],
      "stateMutability": "payable",
      "type": "function"
    },
    {
      "inputs": [],
      "name": "fetchMarketItems",
      "outputs": [
        {
          "components": [
            {
              "internalType": "uint256",
              "name": "itemId",
              "type": "uint256"
            },
            {
              "internalType": "address",
              "name": "nftContract",
              "type": "address"
            },
            {
              "internalType": "uint256",
              "name": "tokenId",
              "type": "uint256"
            },
            {
              "internalType": "address payable",
              "name": "seller",
              "type": "address"
            },
            {
              "internalType": "address payable",
              "name": "owner",
              "type": "address"
            },
            {
              "internalType": "uint256",
              "name": "price",
              "type": "uint256"
            },
            {
              "internalType": "bool",
              "name": "sold",
              "type": "bool"
            }
          ],
          "internalType": "struct NFTMarket.MarketItem[]",
          "name": "",
          "type": "tuple[]"
        }
      ],
      "stateMutability": "view",
      "type": "function"
    },
    {
      "inputs": [],
      "name": "fetchMyCreatedItems",
      "outputs": [
        {
          "components": [
            {
              "internalType": "uint256",
              "name": "itemId",
              "type": "uint256"
            },
            {
              "internalType": "address",
              "name": "nftContract",
              "type": "address"
            },
            {
              "internalType": "uint256",
              "name": "tokenId",
              "type": "uint256"
            },
            {
              "internalType": "address payable",
              "name": "seller",
              "type": "address"
            },
            {
              "internalType": "address payable",
              "name": "owner",
              "type": "address"
            },
            {
              "internalType": "uint256",
              "name": "price",
              "type": "uint256"
            },
            {
              "internalType": "bool",
              "name": "sold",
              "type": "bool"
            }
          ],
          "internalType": "struct NFTMarket.MarketItem[]",
          "name": "",
          "type": "tuple[]"
        }
      ],
      "stateMutability": "view",
      "type": "function"
    },
    {
      "inputs": [],
      "name": "fetchMyOwnedItems",
      "outputs": [
        {
          "components": [
            {
              "internalType": "uint256",
              "name": "itemId",
              "type": "uint256"
            },
            {
              "internalType": "address",
              "name": "nftContract",
              "type": "address"
            },
            {
              "internalType": "uint256",
              "name": "tokenId",
              "type": "uint256"
            },
            {
              "internalType": "address payable",
              "name": "seller",
              "type": "address"
            },
            {
              "internalType": "address payable",
              "name": "owner",
              "type": "address"
            },
            {
              "internalType": "uint256",
              "name": "price",
              "type": "uint256"
            },
            {
              "internalType": "bool",
              "name": "sold",
              "type": "bool"
            }
          ],
          "internalType": "struct NFTMarket.MarketItem[]",
          "name": "",
          "type": "tuple[]"
        }
      ],
      "stateMutability": "view",
      "type": "function"
    },
    {
      "inputs": [],
      "name": "listingPrice",
      "outputs": [
        {
          "internalType": "uint256",
          "name": "",
          "type": "uint256"
        }
      ],
      "stateMutability": "view",
      "type": "function"
    },
    {
      "inputs": [],
      "name": "owner",
      "outputs": [
        {
          "internalType": "address payable",
          "name": "",
          "type": "address"
        }
      ],
      "stateMutability": "view",
      "type": "function"
    }
  ],
  "bytecode": "0x60806040526658d15e1762800060025534801561001b57600080fd5b50600160008190555033600160006101000a81548173ffffffffffffffffffffffffffffffffffffffff021916908373ffffffffffffffffffffffffffffffffffffffff16021790555061174b806100746000396000f3fe6080604052600436106100705760003560e01c8063c23b139e1161004e578063c23b139e146100e7578063c78f19f914610103578063df49d5f01461012e578063ef8da9da1461015957610070565b80630f08efe01461007557806358eb2df5146100a05780638da5cb5b146100bc575b600080fd5b34801561008157600080fd5b5061008a610184565b60405161009791906112e2565b60405180910390f35b6100ba60048036038101906100b59190611361565b610442565b005b3480156100c857600080fd5b506100d1610761565b6040516100de91906113c3565b60405180910390f35b61010160048036038101906100fc91906113de565b610787565b005b34801561010f57600080fd5b50610118610a08565b604051610125919061142d565b60405180910390f35b34801561013a57600080fd5b50610143610a0e565b60405161015091906112e2565b60405180910390f35b34801561016557600080fd5b5061016e610d26565b60405161017b91906112e2565b60405180910390f35b60606000600354905060006004548261019d9190611477565b905060008167ffffffffffffffff8111156101bb576101ba6114ab565b5b6040519080825280602002602001820160405280156101f457816020015b6101e161108e565b8152602001906001900390816101d95790505b509050600080600190505b84811161043757600073ffffffffffffffffffffffffffffffffffffffff166005600083815260200190815260200160002060040160009054906101000a900473ffffffffffffffffffffffffffffffffffffffff1673ffffffffffffffffffffffffffffffffffffffff1614801561029957506005600082815260200190815260200160002060060160009054906101000a900460ff16155b1561042457600560008281526020019081526020016000206040518060e0016040529081600082015481526020016001820160009054906101000a900473ffffffffffffffffffffffffffffffffffffffff1673ffffffffffffffffffffffffffffffffffffffff1673ffffffffffffffffffffffffffffffffffffffff168152602001600282015481526020016003820160009054906101000a900473ffffffffffffffffffffffffffffffffffffffff1673ffffffffffffffffffffffffffffffffffffffff1673ffffffffffffffffffffffffffffffffffffffff1681526020016004820160009054906101000a900473ffffffffffffffffffffffffffffffffffffffff1673ffffffffffffffffffffffffffffffffffffffff1673ffffffffffffffffffffffffffffffffffffffff168152602001600582015481526020016006820160009054906101000a900460ff16151515158152505083838151811061040a576104096114da565b5b6020026020010181905250818061042090611509565b9250505b808061042f90611509565b9150506101ff565b508194505050505090565b61044a61103e565b6000811161048d576040517f08c379a0000000000000000000000000000000000000000000000000000000008152600401610484906115ae565b60405180910390fd5b60025434146104d1576040517f08c379a00000000000000000000000000000000000000000000000000000000081526004016104c89061161a565b60405180910390fd5b600360008154809291906104e490611509565b9190505550600060035490506040518060e001604052808281526020018573ffffffffffffffffffffffffffffffffffffffff1681526020018481526020013373ffffffffffffffffffffffffffffffffffffffff168152602001600073ffffffffffffffffffffffffffffffffffffffff16815260200183815260200160001515815250600560008381526020019081526020016000206000820151816000015560208201518160010160006101000a81548173ffffffffffffffffffffffffffffffffffffffff021916908373ffffffffffffffffffffffffffffffffffffffff1602179055506040820151816002015560608201518160030160006101000a81548173ffffffffffffffffffffffffffffffffffffffff021916908373ffffffffffffffffffffffffffffffffffffffff16021790555060808201518160040160006101000a81548173ffffffffffffffffffffffffffffffffffffffff021916908373ffffffffffffffffffffffffffffffffffffffff16021790555060a0820151816005015560c08201518160060160006101000a81548160ff0219169083151502179055509050508373ffffffffffffffffffffffffffffffffffffffff166323b872dd3330866040518463ffffffff1660e01b81526004016106cf93929190611649565b600060405180830381600087803b1580156106e957600080fd5b505af11580156106fd573d6000803e3d6000fd5b50505050828473ffffffffffffffffffffffffffffffffffffffff16827f6c768f237d15b0eedb46b2f49918dc5109839c2d232c382d377c40fabeeec92d338660405161074b929190611680565b60405180910390a45061075c611084565b505050565b600160009054906101000a900473ffffffffffffffffffffffffffffffffffffffff1681565b61078f61103e565b600060056000838152602001908152602001600020600501549050600060056000848152602001908152602001600020600201549050813414610807576040517f08c379a00000000000000000000000000000000000000000000000000000000081526004016107fe906116f5565b60405180910390fd5b6005600084815260200190815260200160002060030160009054906101000a900473ffffffffffffffffffffffffffffffffffffffff1673ffffffffffffffffffffffffffffffffffffffff166108fc349081150290604051600060405180830381858888f19350505050158015610883573d6000803e3d6000fd5b508373ffffffffffffffffffffffffffffffffffffffff166323b872dd3033846040518463ffffffff1660e01b81526004016108c193929190611649565b600060405180830381600087803b1580156108db57600080fd5b505af11580156108ef573d6000803e3d6000fd5b50505050336005600085815260200190815260200160002060040160006101000a81548173ffffffffffffffffffffffffffffffffffffffff021916908373ffffffffffffffffffffffffffffffffffffffff16021790555060016005600085815260200190815260200160002060060160006101000a81548160ff0219169083151502179055506004600081548092919061098a90611509565b9190505550600160009054906101000a900473ffffffffffffffffffffffffffffffffffffffff1673ffffffffffffffffffffffffffffffffffffffff166108fc6002549081150290604051600060405180830381858888f193505050501580156109f9573d6000803e3d6000fd5b505050610a04611084565b5050565b60025481565b606060006003549050600080600190505b828111610ab1573373ffffffffffffffffffffffffffffffffffffffff166005600083815260200190815260200160002060040160009054906101000a900473ffffffffffffffffffffffffffffffffffffffff1673ffffffffffffffffffffffffffffffffffffffff1603610a9e578180610a9a90611509565b9250505b8080610aa990611509565b915050610a1f565b5060008167ffffffffffffffff811115610ace57610acd6114ab565b5b604051908082528060200260200182016040528015610b0757816020015b610af461108e565b815260200190600190039081610aec5790505b509050600080600190505b848111610d1b573373ffffffffffffffffffffffffffffffffffffffff166005600083815260200190815260200160002060040160009054906101000a900473ffffffffffffffffffffffffffffffffffffffff1673ffffffffffffffffffffffffffffffffffffffff1603610d0857600560008281526020019081526020016000206040518060e0016040529081600082015481526020016001820160009054906101000a900473ffffffffffffffffffffffffffffffffffffffff1673ffffffffffffffffffffffffffffffffffffffff1673ffffffffffffffffffffffffffffffffffffffff168152602001600282015481526020016003820160009054906101000a900473ffffffffffffffffffffffffffffffffffffffff1673ffffffffffffffffffffffffffffffffffffffff1673ffffffffffffffffffffffffffffffffffffffff1681526020016004820160009054906101000a900473ffffffffffffffffffffffffffffffffffffffff1673ffffffffffffffffffffffffffffffffffffffff1673ffffffffffffffffffffffffffffffffffffffff168152602001600582015481526020016006820160009054906101000a900460ff161515151581525050838381518110610cee57610ced6114da565b5b60200260200101819052508180610d0490611509565b9250505b8080610d1390611509565b915050610b12565b508194505050505090565b606060006003549050600080600190505b828111610dc9573373ffffffffffffffffffffffffffffffffffffffff166005600083815260200190815260200160002060030160009054906101000a900473ffffffffffffffffffffffffffffffffffffffff1673ffffffffffffffffffffffffffffffffffffffff1603610db6578180610db290611509565b9250505b8080610dc190611509565b915050610d37565b5060008167ffffffffffffffff811115610de657610de56114ab565b5b604051908082528060200260200182016040528015610e1f57816020015b610e0c61108e565b815260200190600190039081610e045790505b509050600080600190505b848111611033573373ffffffffffffffffffffffffffffffffffffffff166005600083815260200190815260200160002060030160009054906101000a900473ffffffffffffffffffffffffffffffffffffffff1673ffffffffffffffffffffffffffffffffffffffff160361102057600560008281526020019081526020016000206040518060e0016040529081600082015481526020016001820160009054906101000a900473ffffffffffffffffffffffffffffffffffffffff1673ffffffffffffffffffffffffffffffffffffffff1673ffffffffffffffffffffffffffffffffffffffff168152602001600282015481526020016003820160009054906101000a900473ffffffffffffffffffffffffffffffffffffffff1673ffffffffffffffffffffffffffffffffffffffff1673ffffffffffffffffffffffffffffffffffffffff1681526020016004820160009054906101000a900473ffffffffffffffffffffffffffffffffffffffff1673ffffffffffffffffffffffffffffffffffffffff1673ffffffffffffffffffffffffffffffffffffffff168152602001600582015481526020016006820160009054906101000a900460ff161515151581525050838381518110611006576110056114da565b5b6020026020010181905250818061101c90611509565b9250505b808061102b90611509565b915050610e2a565b508194505050505090565b60026000540361107a576040517f3ee5aeb500000000000000000000000000000000000000000000000000000000815260040160405180910390fd5b6002600081905550565b6001600081905550565b6040518060e0016040528060008152602001600073ffffffffffffffffffffffffffffffffffffffff16815260200160008152602001600073ffffffffffffffffffffffffffffffffffffffff168152602001600073ffffffffffffffffffffffffffffffffffffffff168152602001600081526020016000151581525090565b600081519050919050565b600082825260208201905092915050565b6000819050602082019050919050565b6000819050919050565b61114e8161113b565b82525050565b600073ffffffffffffffffffffffffffffffffffffffff82169050919050565b600061117f82611154565b9050919050565b61118f81611174565b82525050565b60006111a082611154565b9050919050565b6111b081611195565b82525050565b60008115159050919050565b6111cb816111b6565b82525050565b60e0820160008201516111e76000850182611145565b5060208201516111fa6020850182611186565b50604082015161120d6040850182611145565b50606082015161122060608501826111a7565b50608082015161123360808501826111a7565b5060a082015161124660a0850182611145565b5060c082015161125960c08501826111c2565b50505050565b600061126b83836111d1565b60e08301905092915050565b6000602082019050919050565b600061128f8261110f565b611299818561111a565b93506112a48361112b565b8060005b838110156112d55781516112bc888261125f565b97506112c783611277565b9250506001810190506112a8565b5085935050505092915050565b600060208201905081810360008301526112fc8184611284565b905092915050565b600080fd5b61131281611174565b811461131d57600080fd5b50565b60008135905061132f81611309565b92915050565b61133e8161113b565b811461134957600080fd5b50565b60008135905061135b81611335565b92915050565b60008060006060848603121561137a57611379611304565b5b600061138886828701611320565b93505060206113998682870161134c565b92505060406113aa8682870161134c565b9150509250925092565b6113bd81611195565b82525050565b60006020820190506113d860008301846113b4565b92915050565b600080604083850312156113f5576113f4611304565b5b600061140385828601611320565b92505060206114148582860161134c565b9150509250929050565b6114278161113b565b82525050565b6000602082019050611442600083018461141e565b92915050565b7f4e487b7100000000000000000000000000000000000000000000000000000000600052601160045260246000fd5b60006114828261113b565b915061148d8361113b565b92508282039050818111156114a5576114a4611448565b5b92915050565b7f4e487b7100000000000000000000000000000000000000000000000000000000600052604160045260246000fd5b7f4e487b7100000000000000000000000000000000000000000000000000000000600052603260045260246000fd5b60006115148261113b565b91507fffffffffffffffffffffffffffffffffffffffffffffffffffffffffffffffff820361154657611545611448565b5b600182019050919050565b600082825260208201905092915050565b7f496e76616c696420707269636500000000000000000000000000000000000000600082015250565b6000611598600d83611551565b91506115a382611562565b602082019050919050565b600060208201905081810360008301526115c78161158b565b9050919050565b7f496e76616c6964206c697374696e672070726963650000000000000000000000600082015250565b6000611604601583611551565b915061160f826115ce565b602082019050919050565b60006020820190508181036000830152611633816115f7565b9050919050565b61164381611174565b82525050565b600060608201905061165e600083018661163a565b61166b602083018561163a565b611678604083018461141e565b949350505050565b6000604082019050611695600083018561163a565b6116a2602083018461141e565b9392505050565b7f496e76616c69642076616c756500000000000000000000000000000000000000600082015250565b60006116df600d83611551565b91506116ea826116a9565b602082019050919050565b6000602082019050818103600083015261170e816116d2565b905091905056fea26469706673582212204a30439fac9a7d31d144b9e4e8b2242ced4a543755745d1538acddcd241d1cc564736f6c63430008180033",
  "linkReferences": {},
  "deployedLinkReferences": {}
}