{
  "_format": "hh-sol-artifact-1",
  "contractName": "NFTMarket",
  "sourceName": "contracts/NFTMarket.sol",
  "abi": [
    {
      "inputs": [],
      "stateMutability": "nonpayable",
      "type": "constructor"
    },
    {
      "inputs": [],
      "name": "ReentrancyGuardReentrantCall",
      "type": "error"
    },
    {
      "anonymous": false,
      "inputs": [
        {
          "indexed": true,
          "internalType": "uint256",
          "name": "itemId",
          "type": "uint256"
        },
        {
          "indexed": true,
          "internalType": "address",
          "name": "nftContract",
          "type": "address"
        },
        {
          "indexed": true,
          "internalType": "uint256",
          "name": "tokenId",
          "type": "uint256"
        },
        {
          "indexed": false,
          "internalType": "address",
          "name": "seller",
          "type": "address"
        },
        {
          "indexed": false,
          "internalType": "uint256",
          "name": "price",
          "type": "uint256"
        }
      ],
      "name": "MarketItemCreated",
      "type": "event"
    },
    {
      "inputs": [
        {
          "internalType": "address",
          "name": "nftContract",
          "type": "address"
        },
        {
          "internalType": "uint256",
          "name": "tokenId",
          "type": "uint256"
        },
        {
          "internalType": "uint256",
          "name": "price",
          "type": "uint256"
        }
      ],
      "name": "createMarketItem",
      "outputs": [],
      "stateMutability": "payable",
      "type": "function"
    },
    {
      "inputs": [
        {
          "internalType": "address",
          "name": "nftContract",
          "type": "address"
        },
        {
          "internalType": "uint256",
          "name": "itemId",
          "type": "uint256"
        }
      ],
      "name": "createMarketSale",
      "outputs": [],
      "stateMutability": "payable",
      "type": "function"
    },
    {
      "inputs": [],
      "name": "fetchMarketItems",
      "outputs": [
        {
          "components": [
            {
              "internalType": "uint256",
              "name": "itemId",
              "type": "uint256"
            },
            {
              "internalType": "address",
              "name": "nftContract",
              "type": "address"
            },
            {
              "internalType": "uint256",
              "name": "tokenId",
              "type": "uint256"
            },
            {
              "internalType": "address payable",
              "name": "seller",
              "type": "address"
            },
            {
              "internalType": "address payable",
              "name": "owner",
              "type": "address"
            },
            {
              "internalType": "uint256",
              "name": "price",
              "type": "uint256"
            },
            {
              "internalType": "bool",
              "name": "sold",
              "type": "bool"
            }
          ],
          "internalType": "struct NFTMarket.MarketItem[]",
          "name": "",
          "type": "tuple[]"
        }
      ],
      "stateMutability": "view",
      "type": "function"
    },
    {
      "inputs": [],
      "name": "fetchMyCreatedItems",
      "outputs": [
        {
          "components": [
            {
              "internalType": "uint256",
              "name": "itemId",
              "type": "uint256"
            },
            {
              "internalType": "address",
              "name": "nftContract",
              "type": "address"
            },
            {
              "internalType": "uint256",
              "name": "tokenId",
              "type": "uint256"
            },
            {
              "internalType": "address payable",
              "name": "seller",
              "type": "address"
            },
            {
              "internalType": "address payable",
              "name": "owner",
              "type": "address"
            },
            {
              "internalType": "uint256",
              "name": "price",
              "type": "uint256"
            },
            {
              "internalType": "bool",
              "name": "sold",
              "type": "bool"
            }
          ],
          "internalType": "struct NFTMarket.MarketItem[]",
          "name": "",
          "type": "tuple[]"
        }
      ],
      "stateMutability": "view",
      "type": "function"
    },
    {
      "inputs": [],
      "name": "fetchMyOwnedItems",
      "outputs": [
        {
          "components": [
            {
              "internalType": "uint256",
              "name": "itemId",
              "type": "uint256"
            },
            {
              "internalType": "address",
              "name": "nftContract",
              "type": "address"
            },
            {
              "internalType": "uint256",
              "name": "tokenId",
              "type": "uint256"
            },
            {
              "internalType": "address payable",
              "name": "seller",
              "type": "address"
            },
            {
              "internalType": "address payable",
              "name": "owner",
              "type": "address"
            },
            {
              "internalType": "uint256",
              "name": "price",
              "type": "uint256"
            },
            {
              "internalType": "bool",
              "name": "sold",
              "type": "bool"
            }
          ],
          "internalType": "struct NFTMarket.MarketItem[]",
          "name": "",
          "type": "tuple[]"
        }
      ],
      "stateMutability": "view",
      "type": "function"
    },
    {
      "inputs": [],
      "name": "listingPrice",
      "outputs": [
        {
          "internalType": "uint256",
          "name": "",
          "type": "uint256"
        }
      ],
      "stateMutability": "view",
      "type": "function"
    },
    {
      "inputs": [
        {
          "internalType": "uint256",
          "name": "",
          "type": "uint256"
        }
      ],
      "name": "marketItems",
      "outputs": [
        {
          "internalType": "uint256",
          "name": "itemId",
          "type": "uint256"
        },
        {
          "internalType": "address",
          "name": "nftContract",
          "type": "address"
        },
        {
          "internalType": "uint256",
          "name": "tokenId",
          "type": "uint256"
        },
        {
          "internalType": "address payable",
          "name": "seller",
          "type": "address"
        },
        {
          "internalType": "address payable",
          "name": "owner",
          "type": "address"
        },
        {
          "internalType": "uint256",
          "name": "price",
          "type": "uint256"
        },
        {
          "internalType": "bool",
          "name": "sold",
          "type": "bool"
        }
      ],
      "stateMutability": "view",
      "type": "function"
    },
    {
      "inputs": [],
      "name": "owner",
      "outputs": [
        {
          "internalType": "address payable",
          "name": "",
          "type": "address"
        }
      ],
      "stateMutability": "view",
      "type": "function"
    }
  ],
  "bytecode": "0x60806040526658d15e1762800060025534801561001b57600080fd5b50600160008190555033600160006101000a81548173ffffffffffffffffffffffffffffffffffffffff021916908373ffffffffffffffffffffffffffffffffffffffff1602179055506118f3806100746000396000f3fe60806040526004361061007b5760003560e01c8063c23b139e1161004e578063c23b139e14610135578063c78f19f914610151578063df49d5f01461017c578063ef8da9da146101a75761007b565b80630f08efe01461008057806351f28e14146100ab57806358eb2df5146100ee5780638da5cb5b1461010a575b600080fd5b34801561008c57600080fd5b506100956101d2565b6040516100a291906113df565b60405180910390f35b3480156100b757600080fd5b506100d260048036038101906100cd9190611432565b610490565b6040516100e5979695949392919061149b565b60405180910390f35b61010860048036038101906101039190611536565b61053f565b005b34801561011657600080fd5b5061011f61085e565b60405161012c9190611589565b60405180910390f35b61014f600480360381019061014a91906115a4565b610884565b005b34801561015d57600080fd5b50610166610b05565b60405161017391906115e4565b60405180910390f35b34801561018857600080fd5b50610191610b0b565b60405161019e91906113df565b60405180910390f35b3480156101b357600080fd5b506101bc610e23565b6040516101c991906113df565b60405180910390f35b6060600060035490506000600454826101eb919061162e565b905060008167ffffffffffffffff81111561020957610208611662565b5b60405190808252806020026020018201604052801561024257816020015b61022f61118b565b8152602001906001900390816102275790505b509050600080600190505b84811161048557600073ffffffffffffffffffffffffffffffffffffffff166005600083815260200190815260200160002060040160009054906101000a900473ffffffffffffffffffffffffffffffffffffffff1673ffffffffffffffffffffffffffffffffffffffff161480156102e757506005600082815260200190815260200160002060060160009054906101000a900460ff16155b1561047257600560008281526020019081526020016000206040518060e0016040529081600082015481526020016001820160009054906101000a900473ffffffffffffffffffffffffffffffffffffffff1673ffffffffffffffffffffffffffffffffffffffff1673ffffffffffffffffffffffffffffffffffffffff168152602001600282015481526020016003820160009054906101000a900473ffffffffffffffffffffffffffffffffffffffff1673ffffffffffffffffffffffffffffffffffffffff1673ffffffffffffffffffffffffffffffffffffffff1681526020016004820160009054906101000a900473ffffffffffffffffffffffffffffffffffffffff1673ffffffffffffffffffffffffffffffffffffffff1673ffffffffffffffffffffffffffffffffffffffff168152602001600582015481526020016006820160009054906101000a900460ff16151515158152505083838151811061045857610457611691565b5b6020026020010181905250818061046e906116c0565b9250505b808061047d906116c0565b91505061024d565b508194505050505090565b60056020528060005260406000206000915090508060000154908060010160009054906101000a900473ffffffffffffffffffffffffffffffffffffffff16908060020154908060030160009054906101000a900473ffffffffffffffffffffffffffffffffffffffff16908060040160009054906101000a900473ffffffffffffffffffffffffffffffffffffffff16908060050154908060060160009054906101000a900460ff16905087565b61054761113b565b6000811161058a576040517f08c379a000000000000000000000000000000000000000000000000000000000815260040161058190611765565b60405180910390fd5b60025434146105ce576040517f08c379a00000000000000000000000000000000000000000000000000000000081526004016105c5906117d1565b60405180910390fd5b600360008154809291906105e1906116c0565b9190505550600060035490506040518060e001604052808281526020018573ffffffffffffffffffffffffffffffffffffffff1681526020018481526020013373ffffffffffffffffffffffffffffffffffffffff168152602001600073ffffffffffffffffffffffffffffffffffffffff16815260200183815260200160001515815250600560008381526020019081526020016000206000820151816000015560208201518160010160006101000a81548173ffffffffffffffffffffffffffffffffffffffff021916908373ffffffffffffffffffffffffffffffffffffffff1602179055506040820151816002015560608201518160030160006101000a81548173ffffffffffffffffffffffffffffffffffffffff021916908373ffffffffffffffffffffffffffffffffffffffff16021790555060808201518160040160006101000a81548173ffffffffffffffffffffffffffffffffffffffff021916908373ffffffffffffffffffffffffffffffffffffffff16021790555060a0820151816005015560c08201518160060160006101000a81548160ff0219169083151502179055509050508373ffffffffffffffffffffffffffffffffffffffff166323b872dd3330866040518463ffffffff1660e01b81526004016107cc939291906117f1565b600060405180830381600087803b1580156107e657600080fd5b505af11580156107fa573d6000803e3d6000fd5b50505050828473ffffffffffffffffffffffffffffffffffffffff16827f6c768f237d15b0eedb46b2f49918dc5109839c2d232c382d377c40fabeeec92d3386604051610848929190611828565b60405180910390a450610859611181565b505050565b600160009054906101000a900473ffffffffffffffffffffffffffffffffffffffff1681565b61088c61113b565b600060056000838152602001908152602001600020600501549050600060056000848152602001908152602001600020600201549050813414610904576040517f08c379a00000000000000000000000000000000000000000000000000000000081526004016108fb9061189d565b60405180910390fd5b6005600084815260200190815260200160002060030160009054906101000a900473ffffffffffffffffffffffffffffffffffffffff1673ffffffffffffffffffffffffffffffffffffffff166108fc349081150290604051600060405180830381858888f19350505050158015610980573d6000803e3d6000fd5b508373ffffffffffffffffffffffffffffffffffffffff166323b872dd3033846040518463ffffffff1660e01b81526004016109be939291906117f1565b600060405180830381600087803b1580156109d857600080fd5b505af11580156109ec573d6000803e3d6000fd5b50505050336005600085815260200190815260200160002060040160006101000a81548173ffffffffffffffffffffffffffffffffffffffff021916908373ffffffffffffffffffffffffffffffffffffffff16021790555060016005600085815260200190815260200160002060060160006101000a81548160ff02191690831515021790555060046000815480929190610a87906116c0565b9190505550600160009054906101000a900473ffffffffffffffffffffffffffffffffffffffff1673ffffffffffffffffffffffffffffffffffffffff166108fc6002549081150290604051600060405180830381858888f19350505050158015610af6573d6000803e3d6000fd5b505050610b01611181565b5050565b60025481565b606060006003549050600080600190505b828111610bae573373ffffffffffffffffffffffffffffffffffffffff166005600083815260200190815260200160002060040160009054906101000a900473ffffffffffffffffffffffffffffffffffffffff1673ffffffffffffffffffffffffffffffffffffffff1603610b9b578180610b97906116c0565b9250505b8080610ba6906116c0565b915050610b1c565b5060008167ffffffffffffffff811115610bcb57610bca611662565b5b604051908082528060200260200182016040528015610c0457816020015b610bf161118b565b815260200190600190039081610be95790505b509050600080600190505b848111610e18573373ffffffffffffffffffffffffffffffffffffffff166005600083815260200190815260200160002060040160009054906101000a900473ffffffffffffffffffffffffffffffffffffffff1673ffffffffffffffffffffffffffffffffffffffff1603610e0557600560008281526020019081526020016000206040518060e0016040529081600082015481526020016001820160009054906101000a900473ffffffffffffffffffffffffffffffffffffffff1673ffffffffffffffffffffffffffffffffffffffff1673ffffffffffffffffffffffffffffffffffffffff168152602001600282015481526020016003820160009054906101000a900473ffffffffffffffffffffffffffffffffffffffff1673ffffffffffffffffffffffffffffffffffffffff1673ffffffffffffffffffffffffffffffffffffffff1681526020016004820160009054906101000a900473ffffffffffffffffffffffffffffffffffffffff1673ffffffffffffffffffffffffffffffffffffffff1673ffffffffffffffffffffffffffffffffffffffff168152602001600582015481526020016006820160009054906101000a900460ff161515151581525050838381518110610deb57610dea611691565b5b60200260200101819052508180610e01906116c0565b9250505b8080610e10906116c0565b915050610c0f565b508194505050505090565b606060006003549050600080600190505b828111610ec6573373ffffffffffffffffffffffffffffffffffffffff166005600083815260200190815260200160002060030160009054906101000a900473ffffffffffffffffffffffffffffffffffffffff1673ffffffffffffffffffffffffffffffffffffffff1603610eb3578180610eaf906116c0565b9250505b8080610ebe906116c0565b915050610e34565b5060008167ffffffffffffffff811115610ee357610ee2611662565b5b604051908082528060200260200182016040528015610f1c57816020015b610f0961118b565b815260200190600190039081610f015790505b509050600080600190505b848111611130573373ffffffffffffffffffffffffffffffffffffffff166005600083815260200190815260200160002060030160009054906101000a900473ffffffffffffffffffffffffffffffffffffffff1673ffffffffffffffffffffffffffffffffffffffff160361111d57600560008281526020019081526020016000206040518060e0016040529081600082015481526020016001820160009054906101000a900473ffffffffffffffffffffffffffffffffffffffff1673ffffffffffffffffffffffffffffffffffffffff1673ffffffffffffffffffffffffffffffffffffffff168152602001600282015481526020016003820160009054906101000a900473ffffffffffffffffffffffffffffffffffffffff1673ffffffffffffffffffffffffffffffffffffffff1673ffffffffffffffffffffffffffffffffffffffff1681526020016004820160009054906101000a900473ffffffffffffffffffffffffffffffffffffffff1673ffffffffffffffffffffffffffffffffffffffff1673ffffffffffffffffffffffffffffffffffffffff168152602001600582015481526020016006820160009054906101000a900460ff16151515158152505083838151811061110357611102611691565b5b60200260200101819052508180611119906116c0565b9250505b8080611128906116c0565b915050610f27565b508194505050505090565b600260005403611177576040517f3ee5aeb500000000000000000000000000000000000000000000000000000000815260040160405180910390fd5b6002600081905550565b6001600081905550565b6040518060e0016040528060008152602001600073ffffffffffffffffffffffffffffffffffffffff16815260200160008152602001600073ffffffffffffffffffffffffffffffffffffffff168152602001600073ffffffffffffffffffffffffffffffffffffffff168152602001600081526020016000151581525090565b600081519050919050565b600082825260208201905092915050565b6000819050602082019050919050565b6000819050919050565b61124b81611238565b82525050565b600073ffffffffffffffffffffffffffffffffffffffff82169050919050565b600061127c82611251565b9050919050565b61128c81611271565b82525050565b600061129d82611251565b9050919050565b6112ad81611292565b82525050565b60008115159050919050565b6112c8816112b3565b82525050565b60e0820160008201516112e46000850182611242565b5060208201516112f76020850182611283565b50604082015161130a6040850182611242565b50606082015161131d60608501826112a4565b50608082015161133060808501826112a4565b5060a082015161134360a0850182611242565b5060c082015161135660c08501826112bf565b50505050565b600061136883836112ce565b60e08301905092915050565b6000602082019050919050565b600061138c8261120c565b6113968185611217565b93506113a183611228565b8060005b838110156113d25781516113b9888261135c565b97506113c483611374565b9250506001810190506113a5565b5085935050505092915050565b600060208201905081810360008301526113f98184611381565b905092915050565b600080fd5b61140f81611238565b811461141a57600080fd5b50565b60008135905061142c81611406565b92915050565b60006020828403121561144857611447611401565b5b60006114568482850161141d565b91505092915050565b61146881611238565b82525050565b61147781611271565b82525050565b61148681611292565b82525050565b611495816112b3565b82525050565b600060e0820190506114b0600083018a61145f565b6114bd602083018961146e565b6114ca604083018861145f565b6114d7606083018761147d565b6114e4608083018661147d565b6114f160a083018561145f565b6114fe60c083018461148c565b98975050505050505050565b61151381611271565b811461151e57600080fd5b50565b6000813590506115308161150a565b92915050565b60008060006060848603121561154f5761154e611401565b5b600061155d86828701611521565b935050602061156e8682870161141d565b925050604061157f8682870161141d565b9150509250925092565b600060208201905061159e600083018461147d565b92915050565b600080604083850312156115bb576115ba611401565b5b60006115c985828601611521565b92505060206115da8582860161141d565b9150509250929050565b60006020820190506115f9600083018461145f565b92915050565b7f4e487b7100000000000000000000000000000000000000000000000000000000600052601160045260246000fd5b600061163982611238565b915061164483611238565b925082820390508181111561165c5761165b6115ff565b5b92915050565b7f4e487b7100000000000000000000000000000000000000000000000000000000600052604160045260246000fd5b7f4e487b7100000000000000000000000000000000000000000000000000000000600052603260045260246000fd5b60006116cb82611238565b91507fffffffffffffffffffffffffffffffffffffffffffffffffffffffffffffffff82036116fd576116fc6115ff565b5b600182019050919050565b600082825260208201905092915050565b7f496e76616c696420707269636500000000000000000000000000000000000000600082015250565b600061174f600d83611708565b915061175a82611719565b602082019050919050565b6000602082019050818103600083015261177e81611742565b9050919050565b7f496e76616c6964206c697374696e672070726963650000000000000000000000600082015250565b60006117bb601583611708565b91506117c682611785565b602082019050919050565b600060208201905081810360008301526117ea816117ae565b9050919050565b6000606082019050611806600083018661146e565b611813602083018561146e565b611820604083018461145f565b949350505050565b600060408201905061183d600083018561146e565b61184a602083018461145f565b9392505050565b7f496e76616c69642076616c756500000000000000000000000000000000000000600082015250565b6000611887600d83611708565b915061189282611851565b602082019050919050565b600060208201905081810360008301526118b68161187a565b905091905056fea2646970667358221220857430e06c13a2f45acf02e0c4ab61ffa620bfee2cb9aa40434281bb8dcfa45b64736f6c63430008180033",
  "linkReferences": {},
  "deployedLinkReferences": {}
}